{
  "contractName": "Flashloan",
  "abi": [
    {
      "inputs": [
        {
          "name": "kyberAddress",
          "type": "address"
        },
        {
          "name": "uniswapAddress",
          "type": "address"
        },
        {
          "name": "wethAddress",
          "type": "address"
        },
        {
          "name": "daiAddress",
          "type": "address"
        },
        {
          "name": "beneficiaryAddress",
          "type": "address"
        }
      ],
      "payable": false,
      "stateMutability": "nonpayable",
      "type": "constructor"
    },
    {
      "anonymous": false,
      "inputs": [
        {
          "indexed": false,
          "name": "direction",
          "type": "uint8"
        },
        {
          "indexed": false,
          "name": "profit",
          "type": "uint256"
        },
        {
          "indexed": false,
          "name": "date",
          "type": "uint256"
        }
      ],
      "name": "NewArbitrage",
      "type": "event"
    },
    {
      "constant": false,
      "inputs": [
        {
          "name": "sender",
          "type": "address"
        },
        {
          "components": [
            {
              "name": "owner",
              "type": "address"
            },
            {
              "name": "number",
              "type": "uint256"
            }
          ],
          "name": "account",
          "type": "tuple"
        },
        {
          "name": "data",
          "type": "bytes"
        }
      ],
      "name": "callFunction",
      "outputs": [],
      "payable": false,
      "stateMutability": "nonpayable",
      "type": "function"
    },
    {
      "constant": false,
      "inputs": [
        {
          "name": "_solo",
          "type": "address"
        },
        {
          "name": "_token",
          "type": "address"
        },
        {
          "name": "_amount",
          "type": "uint256"
        },
        {
          "name": "_direction",
          "type": "uint8"
        }
      ],
      "name": "initiateFlashloan",
      "outputs": [],
      "payable": false,
      "stateMutability": "nonpayable",
      "type": "function"
    }
  ],
  "bytecode": "0x60806040523480156200001157600080fd5b5060405160a08062002790833981018060405262000033919081019062000198565b846000806101000a81548173ffffffffffffffffffffffffffffffffffffffff021916908373ffffffffffffffffffffffffffffffffffffffff16021790555083600160006101000a81548173ffffffffffffffffffffffffffffffffffffffff021916908373ffffffffffffffffffffffffffffffffffffffff16021790555082600260006101000a81548173ffffffffffffffffffffffffffffffffffffffff021916908373ffffffffffffffffffffffffffffffffffffffff16021790555081600360006101000a81548173ffffffffffffffffffffffffffffffffffffffff021916908373ffffffffffffffffffffffffffffffffffffffff16021790555080600460006101000a81548173ffffffffffffffffffffffffffffffffffffffff021916908373ffffffffffffffffffffffffffffffffffffffff16021790555050505050506200024e565b60006200019082516200021a565b905092915050565b600080600080600060a08688031215620001b157600080fd5b6000620001c18882890162000182565b9550506020620001d48882890162000182565b9450506040620001e78882890162000182565b9350506060620001fa8882890162000182565b92505060806200020d8882890162000182565b9150509295509295909350565b600062000227826200022e565b9050919050565b600073ffffffffffffffffffffffffffffffffffffffff82169050919050565b612532806200025e6000396000f3fe608060405234801561001057600080fd5b50600436106100365760003560e01c80638b4187131461003b578063c013147614610057575b600080fd5b61005560048036036100509190810190611925565b610073565b005b610071600480360361006c91908101906118c2565b610e1f565b005b61007b611501565b8180602001905161008f91908101906119f6565b90506000600360009054906101000a900473ffffffffffffffffffffffffffffffffffffffff1673ffffffffffffffffffffffffffffffffffffffff166370a08231306040518263ffffffff1660e01b81526004016100ee9190611f3d565b60206040518083038186803b15801561010657600080fd5b505afa15801561011a573d6000803e3d6000fd5b505050506040513d601f19601f8201168201806040525061013e9190810190611a1f565b90506000600181111561014d57fe5b8260000151600181111561015d57fe5b14156106b857600360009054906101000a900473ffffffffffffffffffffffffffffffffffffffff1673ffffffffffffffffffffffffffffffffffffffff1663095ea7b36000809054906101000a900473ffffffffffffffffffffffffffffffffffffffff16836040518363ffffffff1660e01b81526004016101e1929190611f58565b602060405180830381600087803b1580156101fb57600080fd5b505af115801561020f573d6000803e3d6000fd5b505050506040513d601f19601f8201168201806040525061023391908101906119cd565b5060008060009054906101000a900473ffffffffffffffffffffffffffffffffffffffff1673ffffffffffffffffffffffffffffffffffffffff1663809a9e55600360009054906101000a900473ffffffffffffffffffffffffffffffffffffffff1673eeeeeeeeeeeeeeeeeeeeeeeeeeeeeeeeeeeeeeee856040518463ffffffff1660e01b81526004016102ca93929190611fb8565b604080518083038186803b1580156102e157600080fd5b505afa1580156102f5573d6000803e3d6000fd5b505050506040513d601f19601f820116820180604052506103199190810190611a48565b5090506000809054906101000a900473ffffffffffffffffffffffffffffffffffffffff1673ffffffffffffffffffffffffffffffffffffffff16633bba21dc600360009054906101000a900473ffffffffffffffffffffffffffffffffffffffff1684846040518463ffffffff1660e01b815260040161039c93929190612018565b602060405180830381600087803b1580156103b657600080fd5b505af11580156103ca573d6000803e3d6000fd5b505050506040513d601f19601f820116820180604052506103ee9190810190611a1f565b50606060026040519080825280602002602001820160405280156104215781602001602082028038833980820191505090505b509050600260009054906101000a900473ffffffffffffffffffffffffffffffffffffffff168160008151811061045457fe5b602002602001019073ffffffffffffffffffffffffffffffffffffffff16908173ffffffffffffffffffffffffffffffffffffffff1681525050600360009054906101000a900473ffffffffffffffffffffffffffffffffffffffff16816001815181106104be57fe5b602002602001019073ffffffffffffffffffffffffffffffffffffffff16908173ffffffffffffffffffffffffffffffffffffffff16815250506060600160009054906101000a900473ffffffffffffffffffffffffffffffffffffffff1673ffffffffffffffffffffffffffffffffffffffff1663d06ca61f60023073ffffffffffffffffffffffffffffffffffffffff163103846040518363ffffffff1660e01b815260040161057192919061211c565b60006040518083038186803b15801561058957600080fd5b505afa15801561059d573d6000803e3d6000fd5b505050506040513d6000823e3d601f19601f820116820180604052506105c6919081019061198c565b9050600160009054906101000a900473ffffffffffffffffffffffffffffffffffffffff1673ffffffffffffffffffffffffffffffffffffffff16637ff36ab560023073ffffffffffffffffffffffffffffffffffffffff1631038360008151811061062e57fe5b60200260200101518530426040518663ffffffff1660e01b8152600401610658949392919061214c565b6000604051808303818588803b15801561067157600080fd5b505af1158015610685573d6000803e3d6000fd5b50505050506040513d6000823e3d601f19601f820116820180604052506106af919081019061198c565b50505050610c0a565b600360009054906101000a900473ffffffffffffffffffffffffffffffffffffffff1673ffffffffffffffffffffffffffffffffffffffff1663095ea7b3600160009054906101000a900473ffffffffffffffffffffffffffffffffffffffff16836040518363ffffffff1660e01b8152600401610737929190611f58565b602060405180830381600087803b15801561075157600080fd5b505af1158015610765573d6000803e3d6000fd5b505050506040513d601f19601f8201168201806040525061078991908101906119cd565b50606060026040519080825280602002602001820160405280156107bc5781602001602082028038833980820191505090505b509050600360009054906101000a900473ffffffffffffffffffffffffffffffffffffffff16816000815181106107ef57fe5b602002602001019073ffffffffffffffffffffffffffffffffffffffff16908173ffffffffffffffffffffffffffffffffffffffff1681525050600260009054906101000a900473ffffffffffffffffffffffffffffffffffffffff168160018151811061085957fe5b602002602001019073ffffffffffffffffffffffffffffffffffffffff16908173ffffffffffffffffffffffffffffffffffffffff16815250506060600160009054906101000a900473ffffffffffffffffffffffffffffffffffffffff1673ffffffffffffffffffffffffffffffffffffffff1663d06ca61f84846040518363ffffffff1660e01b81526004016108f292919061211c565b60006040518083038186803b15801561090a57600080fd5b505afa15801561091e573d6000803e3d6000fd5b505050506040513d6000823e3d601f19601f82011682018060405250610947919081019061198c565b9050600160009054906101000a900473ffffffffffffffffffffffffffffffffffffffff1673ffffffffffffffffffffffffffffffffffffffff166318cbafe5848360008151811061099557fe5b60200260200101518530426040518663ffffffff1660e01b81526004016109c0959493929190612198565b600060405180830381600087803b1580156109da57600080fd5b505af11580156109ee573d6000803e3d6000fd5b505050506040513d6000823e3d601f19601f82011682018060405250610a17919081019061198c565b5060008060009054906101000a900473ffffffffffffffffffffffffffffffffffffffff1673ffffffffffffffffffffffffffffffffffffffff1663809a9e5573eeeeeeeeeeeeeeeeeeeeeeeeeeeeeeeeeeeeeeee600360009054906101000a900473ffffffffffffffffffffffffffffffffffffffff1660023073ffffffffffffffffffffffffffffffffffffffff1631036040518463ffffffff1660e01b8152600401610ac893929190611fb8565b604080518083038186803b158015610adf57600080fd5b505afa158015610af3573d6000803e3d6000fd5b505050506040513d601f19601f82011682018060405250610b179190810190611a48565b5090506000809054906101000a900473ffffffffffffffffffffffffffffffffffffffff1673ffffffffffffffffffffffffffffffffffffffff16637a2a045660023073ffffffffffffffffffffffffffffffffffffffff163103600360009054906101000a900473ffffffffffffffffffffffffffffffffffffffff16846040518463ffffffff1660e01b8152600401610bb3929190611fef565b6020604051808303818588803b158015610bcc57600080fd5b505af1158015610be0573d6000803e3d6000fd5b50505050506040513d601f19601f82011682018060405250610c059190810190611a1f565b505050505b60008260200151600360009054906101000a900473ffffffffffffffffffffffffffffffffffffffff1673ffffffffffffffffffffffffffffffffffffffff166370a08231306040518263ffffffff1660e01b8152600401610c6c9190611f3d565b60206040518083038186803b158015610c8457600080fd5b505afa158015610c98573d6000803e3d6000fd5b505050506040513d601f19601f82011682018060405250610cbc9190810190611a1f565b039050600360009054906101000a900473ffffffffffffffffffffffffffffffffffffffff1673ffffffffffffffffffffffffffffffffffffffff1663a9059cbb600460009054906101000a900473ffffffffffffffffffffffffffffffffffffffff16836040518363ffffffff1660e01b8152600401610d3e929190611f58565b602060405180830381600087803b158015610d5857600080fd5b505af1158015610d6c573d6000803e3d6000fd5b505050506040513d601f19601f82011682018060405250610d9091908101906119cd565b507fa89b78c8d1240154beaf4b865d2d7cb794ac0f358c618aef3de102cf4a4ee42d83600001518242604051610dc89392919061204f565b60405180910390a18260200151821015610e17576040517f08c379a0000000000000000000000000000000000000000000000000000000008152600401610e0e906120a6565b60405180910390fd5b505050505050565b60008490506000610e308686611088565b90506000610e3d8561123a565b90508573ffffffffffffffffffffffffffffffffffffffff1663095ea7b388836040518363ffffffff1660e01b8152600401610e7a929190611f58565b602060405180830381600087803b158015610e9457600080fd5b505af1158015610ea8573d6000803e3d6000fd5b505050506040513d601f19601f82011682018060405250610ecc91908101906119cd565b5060606003604051908082528060200260200182016040528015610f0a57816020015b610ef7611526565b815260200190600190039081610eef5790505b509050610f178387611257565b81600081518110610f2457fe5b6020026020010181905250610f766040518060400160405280876001811115610f4957fe5b815260200184815250604051602001610f6291906120e6565b604051602081830303815290604052611310565b81600181518110610f8357fe5b6020026020010181905250610f9883836113ba565b81600281518110610fa557fe5b602002602001018190525060606001604051908082528060200260200182016040528015610fed57816020015b610fda611592565b815260200190600190039081610fd25790505b509050610ff8611473565b8160008151811061100557fe5b60200260200101819052508473ffffffffffffffffffffffffffffffffffffffff1663a67a6a4582846040518363ffffffff1660e01b815260040161104b929190611f81565b600060405180830381600087803b15801561106557600080fd5b505af1158015611079573d6000803e3d6000fd5b50505050505050505050505050565b60008083905060008173ffffffffffffffffffffffffffffffffffffffff1663295c39a56040518163ffffffff1660e01b815260040160206040518083038186803b1580156110d657600080fd5b505afa1580156110ea573d6000803e3d6000fd5b505050506040513d601f19601f8201168201806040525061110e9190810190611a1f565b9050600080600090505b828110156111f8578373ffffffffffffffffffffffffffffffffffffffff1663062bd3e9826040518263ffffffff1660e01b81526004016111599190612101565b60206040518083038186803b15801561117157600080fd5b505afa158015611185573d6000803e3d6000fd5b505050506040513d601f19601f820116820180604052506111a99190810190611899565b91508573ffffffffffffffffffffffffffffffffffffffff168273ffffffffffffffffffffffffffffffffffffffff1614156111eb5780945050505050611234565b8080600101915050611118565b506040517f08c379a000000000000000000000000000000000000000000000000000000000815260040161122b906120c6565b60405180910390fd5b92915050565b60006112506002836114ac90919063ffffffff16565b9050919050565b61125f6115c2565b6040518061010001604052806001600881111561127857fe5b8152602001600081526020016040518060800160405280600015158152602001600060018111156112a557fe5b8152602001600060018111156112b757fe5b8152602001858152508152602001848152602001600081526020013073ffffffffffffffffffffffffffffffffffffffff1681526020016000815260200160405180602001604052806000815250815250905092915050565b6113186115c2565b60405180610100016040528060088081111561133057fe5b81526020016000815260200160405180608001604052806000151581526020016000600181111561135d57fe5b81526020016000600181111561136f57fe5b81526020016000815250815260200160008152602001600081526020013073ffffffffffffffffffffffffffffffffffffffff16815260200160008152602001838152509050919050565b6113c26115c2565b604051806101000160405280600060088111156113db57fe5b81526020016000815260200160405180608001604052806001151581526020016000600181111561140857fe5b81526020016000600181111561141a57fe5b8152602001858152508152602001848152602001600081526020013073ffffffffffffffffffffffffffffffffffffffff1681526020016000815260200160405180602001604052806000815250815250905092915050565b61147b61162e565b60405180604001604052803073ffffffffffffffffffffffffffffffffffffffff1681526020016001815250905090565b6000808284019050838110156114f7576040517f08c379a00000000000000000000000000000000000000000000000000000000081526004016114ee90612086565b60405180910390fd5b8091505092915050565b60405180604001604052806000600181111561151957fe5b8152602001600081525090565b6040518061016001604052806000600881111561153f57fe5b81526020016000815260200161155361165e565b81526020016000815260200160008152602001600073ffffffffffffffffffffffffffffffffffffffff16815260200160008152602001606081525090565b6040518060400160405280600073ffffffffffffffffffffffffffffffffffffffff168152602001600081525090565b604051806101600160405280600060088111156115db57fe5b8152602001600081526020016115ef61165e565b81526020016000815260200160008152602001600073ffffffffffffffffffffffffffffffffffffffff16815260200160008152602001606081525090565b6040518060400160405280600073ffffffffffffffffffffffffffffffffffffffff168152602001600081525090565b60405180608001604052806000151581526020016000600181111561167f57fe5b81526020016000600181111561169157fe5b8152602001600081525090565b60006116aa82356123da565b905092915050565b60006116be82516123da565b905092915050565b600082601f8301126116d757600080fd5b81516116ea6116e58261221f565b6121f2565b9150818183526020840193506020810190508385602084028201111561170f57600080fd5b60005b8381101561173f57816117258882611885565b845260208401935060208301925050600181019050611712565b5050505092915050565b600061175582516123ec565b905092915050565b600082601f83011261176e57600080fd5b813561178161177c82612247565b6121f2565b9150808252602083016020830185838301111561179d57600080fd5b6117a88382846124a5565b50505092915050565b60006117bd82356123f8565b905092915050565b60006117d182516123f8565b905092915050565b6000604082840312156117eb57600080fd5b6117f560406121f2565b90506000611805848285016117c5565b600083015250602061181984828501611885565b60208301525092915050565b60006040828403121561183757600080fd5b61184160406121f2565b905060006118518482850161169e565b600083015250602061186584828501611871565b60208301525092915050565b600061187d823561242f565b905092915050565b6000611891825161242f565b905092915050565b6000602082840312156118ab57600080fd5b60006118b9848285016116b2565b91505092915050565b600080600080608085870312156118d857600080fd5b60006118e68782880161169e565b94505060206118f78782880161169e565b935050604061190887828801611871565b9250506060611919878288016117b1565b91505092959194509250565b60008060006080848603121561193a57600080fd5b60006119488682870161169e565b935050602061195986828701611825565b925050606084013567ffffffffffffffff81111561197657600080fd5b6119828682870161175d565b9150509250925092565b60006020828403121561199e57600080fd5b600082015167ffffffffffffffff8111156119b857600080fd5b6119c4848285016116c6565b91505092915050565b6000602082840312156119df57600080fd5b60006119ed84828501611749565b91505092915050565b600060408284031215611a0857600080fd5b6000611a16848285016117d9565b91505092915050565b600060208284031215611a3157600080fd5b6000611a3f84828501611885565b91505092915050565b60008060408385031215611a5b57600080fd5b6000611a6985828601611885565b9250506020611a7a85828601611885565b9150509250929050565b6000611a908383611ac8565b60208301905092915050565b6000611aa88383611db9565b905092915050565b6000611abc8383611ef0565b60408301905092915050565b611ad181612342565b82525050565b611ae081612342565b82525050565b6000611af18261229a565b611afb81856122ed565b9350611b0683612273565b60005b82811015611b3457611b1c868351611a84565b9550611b27826122c6565b9150600181019050611b09565b50849250505092915050565b6000611b4b826122a5565b611b5581856122fe565b935083602082028501611b6785612280565b60005b84811015611ba0578383038852611b82838351611a9c565b9250611b8d826122d3565b9150602088019750600181019050611b6a565b508196508694505050505092915050565b6000611bbc826122b0565b611bc6818561230f565b9350611bd18361228d565b60005b82811015611bff57611be7868351611ab0565b9550611bf2826122e0565b9150600181019050611bd4565b50849250505092915050565b611c1481612354565b82525050565b6000611c25826122bb565b611c2f8185612320565b9350611c3f8185602086016124b4565b611c48816124e7565b840191505092915050565b611c5c81612439565b82525050565b611c6b8161245d565b82525050565b611c7a8161246f565b82525050565b611c8981612481565b82525050565b611c9881612493565b82525050565b611ca781612493565b82525050565b6000611cba601b83612331565b91507f536166654d6174683a206164646974696f6e206f766572666c6f7700000000006000830152602082019050919050565b6000611cfa602483612331565b91507f4e6f7420656e6f7567682066756e647320746f2072657061792064796478206c60008301527f6f616e21000000000000000000000000000000000000000000000000000000006020830152604082019050919050565b6000611d60602483612331565b91507f4e6f206d61726b6574496420666f756e6420666f722070726f7669646564207460008301527f6f6b656e000000000000000000000000000000000000000000000000000000006020830152604082019050919050565b600061016083016000830151611dd26000860182611c62565b506020830151611de56020860182611f1f565b506040830151611df86040860182611e9b565b506060830151611e0b60c0860182611f1f565b506080830151611e1e60e0860182611f1f565b5060a0830151611e32610100860182611ac8565b5060c0830151611e46610120860182611f1f565b5060e0830151848203610140860152611e5f8282611c1a565b9150508091505092915050565b604082016000820151611e826000850182611c8f565b506020820151611e956020850182611f1f565b50505050565b608082016000820151611eb16000850182611c0b565b506020820151611ec46020850182611c71565b506040820151611ed76040850182611c80565b506060820151611eea6060850182611f1f565b50505050565b604082016000820151611f066000850182611ac8565b506020820151611f196020850182611f1f565b50505050565b611f28816123d0565b82525050565b611f37816123d0565b82525050565b6000602082019050611f526000830184611ad7565b92915050565b6000604082019050611f6d6000830185611ad7565b611f7a6020830184611f2e565b9392505050565b60006040820190508181036000830152611f9b8185611bb1565b90508181036020830152611faf8184611b40565b90509392505050565b6000606082019050611fcd6000830186611c53565b611fda6020830185611c53565b611fe76040830184611f2e565b949350505050565b60006040820190506120046000830185611c53565b6120116020830184611f2e565b9392505050565b600060608201905061202d6000830186611c53565b61203a6020830185611f2e565b6120476040830184611f2e565b949350505050565b60006060820190506120646000830186611c9e565b6120716020830185611f2e565b61207e6040830184611f2e565b949350505050565b6000602082019050818103600083015261209f81611cad565b9050919050565b600060208201905081810360008301526120bf81611ced565b9050919050565b600060208201905081810360008301526120df81611d53565b9050919050565b60006040820190506120fb6000830184611e6c565b92915050565b60006020820190506121166000830184611f2e565b92915050565b60006040820190506121316000830185611f2e565b81810360208301526121438184611ae6565b90509392505050565b60006080820190506121616000830187611f2e565b81810360208301526121738186611ae6565b90506121826040830185611ad7565b61218f6060830184611f2e565b95945050505050565b600060a0820190506121ad6000830188611f2e565b6121ba6020830187611f2e565b81810360408301526121cc8186611ae6565b90506121db6060830185611ad7565b6121e86080830184611f2e565b9695505050505050565b6000604051905081810181811067ffffffffffffffff8211171561221557600080fd5b8060405250919050565b600067ffffffffffffffff82111561223657600080fd5b602082029050602081019050919050565b600067ffffffffffffffff82111561225e57600080fd5b601f19601f8301169050602081019050919050565b6000602082019050919050565b6000602082019050919050565b6000602082019050919050565b600081519050919050565b600081519050919050565b600081519050919050565b600081519050919050565b6000602082019050919050565b6000602082019050919050565b6000602082019050919050565b600082825260208201905092915050565b600082825260208201905092915050565b600082825260208201905092915050565b600082825260208201905092915050565b600082825260208201905092915050565b600061234d826123b0565b9050919050565b60008115159050919050565b60006009821061236c57fe5b819050919050565b60006002821061238057fe5b819050919050565b60006002821061239457fe5b819050919050565b6000600282106123a857fe5b819050919050565b600073ffffffffffffffffffffffffffffffffffffffff82169050919050565b6000819050919050565b60006123e58261240f565b9050919050565b60008115159050919050565b60006002821061240757600080fd5b819050919050565b600073ffffffffffffffffffffffffffffffffffffffff82169050919050565b6000819050919050565b60006124448261244b565b9050919050565b6000612456826123b0565b9050919050565b600061246882612360565b9050919050565b600061247a82612374565b9050919050565b600061248c82612388565b9050919050565b600061249e8261239c565b9050919050565b82818337600083830152505050565b60005b838110156124d25780820151818401526020810190506124b7565b838111156124e1576000848401525b50505050565b6000601f19601f830116905091905056fea265627a7a72305820be53fabd86fabdf51f2eb4cc9a25726f87a59bf3ce117d1b6a16d2ea4afdf7b16c6578706572696d656e74616cf50037",
  "source": "pragma solidity ^0.5.0;\npragma experimental ABIEncoderV2;\n\nimport \"@studydefi/money-legos/dydx/contracts/DydxFlashloanBase.sol\";\nimport \"@studydefi/money-legos/dydx/contracts/ICallee.sol\";\nimport { KyberNetworkProxy as IKyberNetworkProxy } from '@studydefi/money-legos/kyber/contracts/KyberNetworkProxy.sol';\n\nimport \"@openzeppelin/contracts/token/ERC20/IERC20.sol\";\nimport './IUniswapV2Router02.sol';\nimport './IWeth.sol';\n\ncontract Flashloan is ICallee, DydxFlashloanBase {\n    enum Direction { KyberToUniswap, UniswapToKyber } \n    struct ArbInfo {\n        Direction direction;\n        uint repayAmount;\n    }\n\n    event NewArbitrage (\n      Direction direction,\n      uint profit,\n      uint date\n    );\n\n    IKyberNetworkProxy kyber;\n    IUniswapV2Router02 uniswap;\n    IWeth weth;\n    IERC20 dai;\n    address beneficiary;\n    address constant KYBER_ETH_ADDRESS = 0xEeeeeEeeeEeEeeEeEeEeeEEEeeeeEeeeeeeeEEeE;\n\n    constructor(\n        address kyberAddress,\n        address uniswapAddress,\n        address wethAddress,\n        address daiAddress,\n        address beneficiaryAddress\n    ) public {\n      kyber = IKyberNetworkProxy(kyberAddress);\n      uniswap = IUniswapV2Router02(uniswapAddress);\n      weth = IWeth(wethAddress);\n      dai = IERC20(daiAddress);\n      beneficiary = beneficiaryAddress;\n    }\n\n    // This is the function that will be called postLoan\n    // i.e. Encode the logic to handle your flashloaned funds here\n    function callFunction(\n        address sender,\n        Account.Info memory account,\n        bytes memory data\n    ) public {\n        ArbInfo memory arbInfo = abi.decode(data, (ArbInfo));\n        uint256 balanceDai = dai.balanceOf(address(this));\n\n        // Note that you can ignore the line below\n        // if your dydx account (this contract in this case)\n        // has deposited at least ~2 Wei of assets into the account\n        // to balance out the collaterization ratio\n        \n\n        if(arbInfo.direction == Direction.KyberToUniswap) {\n          //Buy ETH on Kyber\n          dai.approve(address(kyber), balanceDai); \n          (uint expectedRate, ) = kyber.getExpectedRate(\n            dai, \n            IERC20(KYBER_ETH_ADDRESS), \n            balanceDai\n          );\n          kyber.swapTokenToEther(dai, balanceDai, expectedRate);\n\n          //Sell ETH on Uniswap\n          address[] memory path = new address[](2);\n          path[0] = address(weth);\n          path[1] = address(dai);\n          uint[] memory minOuts = uniswap.getAmountsOut(address(this).balance - 2, path); \n          uniswap.swapExactETHForTokens.value(address(this).balance - 2)(\n            minOuts[0], \n            path, \n            address(this), \n            now\n          );\n        } else {\n          //Buy ETH on Uniswap\n          dai.approve(address(uniswap), balanceDai); \n          address[] memory path = new address[](2);\n          path[0] = address(dai);\n          path[1] = address(weth);\n          uint[] memory minOuts = uniswap.getAmountsOut(balanceDai, path); \n          uniswap.swapExactTokensForETH(\n            balanceDai, \n            minOuts[0], \n            path, \n            address(this), \n            now\n          );\n\n          //Sell ETH on Kyber\n          (uint expectedRate, ) = kyber.getExpectedRate(\n            IERC20(KYBER_ETH_ADDRESS), \n            dai, \n            address(this).balance - 2\n          );\n          kyber.swapEtherToToken.value(address(this).balance - 2)(\n            dai, \n            expectedRate\n          );\n        }\n        uint profit = dai.balanceOf(address(this)) - arbInfo.repayAmount; \n        dai.transfer(beneficiary, profit);\n        emit NewArbitrage(arbInfo.direction, profit, now);\n\n        require(\n            balanceDai >= arbInfo.repayAmount,\n            \"Not enough funds to repay dydx loan!\"\n        );\n    }\n\n    function initiateFlashloan(\n      address _solo, \n      address _token, \n      uint256 _amount, \n      Direction _direction)\n        external\n    {\n        ISoloMargin solo = ISoloMargin(_solo);\n\n        // Get marketId from token address\n        uint256 marketId = _getMarketIdFromTokenAddress(_solo, _token);\n\n        // Calculate repay amount (_amount + (2 wei))\n        // Approve transfer from\n        uint256 repayAmount = _getRepaymentAmountInternal(_amount);\n        IERC20(_token).approve(_solo, repayAmount);\n\n        // 1. Withdraw $\n        // 2. Call callFunction(...)\n        // 3. Deposit back $\n        Actions.ActionArgs[] memory operations = new Actions.ActionArgs[](3);\n\n        operations[0] = _getWithdrawAction(marketId, _amount);\n        operations[1] = _getCallAction(\n            // Encode MyCustomData for callFunction\n            abi.encode(ArbInfo({direction: _direction, repayAmount: repayAmount}))\n        );\n        operations[2] = _getDepositAction(marketId, repayAmount);\n\n        Account.Info[] memory accountInfos = new Account.Info[](1);\n        accountInfos[0] = _getAccountInfo();\n\n        solo.operate(accountInfos, operations);\n    }\n}\n",
  "sourcePath": "C:/Users/User/Desktop/flashloan_bot/contracts/Flashloan.sol",
  "compiler": {
    "name": "solc",
    "version": "0.5.7+commit.6da8b019.Emscripten.clang"
  },
  "schemaVersion": "3.2.2",
  "updatedAt": "2020-07-24T18:07:33.144Z",
  "devdoc": {
    "methods": {}
  },
  "userdoc": {
    "methods": {}
  }
}